{
  "_format": "hh-sol-artifact-1",
  "contractName": "Voting",
  "sourceName": "contracts/voting.sol",
  "abi": [
    {
      "inputs": [],
      "stateMutability": "nonpayable",
      "type": "constructor"
    },
    {
      "inputs": [
        {
          "internalType": "string",
          "name": "name",
          "type": "string"
        },
        {
          "internalType": "string",
          "name": "avatarIpfsHash",
          "type": "string"
        },
        {
          "internalType": "string",
          "name": "program",
          "type": "string"
        }
      ],
      "name": "addCandidate",
      "outputs": [],
      "stateMutability": "nonpayable",
      "type": "function"
    },
    {
      "inputs": [
        {
          "internalType": "uint256",
          "name": "",
          "type": "uint256"
        }
      ],
      "name": "candidates",
      "outputs": [
        {
          "internalType": "string",
          "name": "name",
          "type": "string"
        },
        {
          "internalType": "uint256",
          "name": "voteCount",
          "type": "uint256"
        },
        {
          "internalType": "string",
          "name": "avatarIpfsHash",
          "type": "string"
        },
        {
          "internalType": "string",
          "name": "program",
          "type": "string"
        }
      ],
      "stateMutability": "view",
      "type": "function"
    },
    {
      "inputs": [],
      "name": "endVoting",
      "outputs": [],
      "stateMutability": "nonpayable",
      "type": "function"
    },
    {
      "inputs": [
        {
          "internalType": "uint256",
          "name": "index",
          "type": "uint256"
        }
      ],
      "name": "getCandidate",
      "outputs": [
        {
          "internalType": "string",
          "name": "name",
          "type": "string"
        },
        {
          "internalType": "uint256",
          "name": "voteCount",
          "type": "uint256"
        },
        {
          "internalType": "string",
          "name": "avatarIpfsHash",
          "type": "string"
        },
        {
          "internalType": "string",
          "name": "program",
          "type": "string"
        }
      ],
      "stateMutability": "view",
      "type": "function"
    },
    {
      "inputs": [],
      "name": "getCandidateCount",
      "outputs": [
        {
          "internalType": "uint256",
          "name": "",
          "type": "uint256"
        }
      ],
      "stateMutability": "view",
      "type": "function"
    },
    {
      "inputs": [],
      "name": "getVotingEndedAt",
      "outputs": [
        {
          "internalType": "uint256",
          "name": "",
          "type": "uint256"
        }
      ],
      "stateMutability": "view",
      "type": "function"
    },
    {
      "inputs": [],
      "name": "getWinner",
      "outputs": [
        {
          "internalType": "string",
          "name": "winnerName",
          "type": "string"
        },
        {
          "internalType": "uint256",
          "name": "winnerVoteCount",
          "type": "uint256"
        }
      ],
      "stateMutability": "view",
      "type": "function"
    },
    {
      "inputs": [
        {
          "internalType": "address",
          "name": "",
          "type": "address"
        }
      ],
      "name": "hasVoted",
      "outputs": [
        {
          "internalType": "bool",
          "name": "",
          "type": "bool"
        }
      ],
      "stateMutability": "view",
      "type": "function"
    },
    {
      "inputs": [],
      "name": "owner",
      "outputs": [
        {
          "internalType": "address",
          "name": "",
          "type": "address"
        }
      ],
      "stateMutability": "view",
      "type": "function"
    },
    {
      "inputs": [
        {
          "internalType": "uint256",
          "name": "index",
          "type": "uint256"
        }
      ],
      "name": "removeCandidate",
      "outputs": [],
      "stateMutability": "nonpayable",
      "type": "function"
    },
    {
      "inputs": [],
      "name": "startVoting",
      "outputs": [],
      "stateMutability": "nonpayable",
      "type": "function"
    },
    {
      "inputs": [
        {
          "internalType": "uint256",
          "name": "candidateIndex",
          "type": "uint256"
        }
      ],
      "name": "vote",
      "outputs": [],
      "stateMutability": "nonpayable",
      "type": "function"
    },
    {
      "inputs": [],
      "name": "votingEndedAt",
      "outputs": [
        {
          "internalType": "uint256",
          "name": "",
          "type": "uint256"
        }
      ],
      "stateMutability": "view",
      "type": "function"
    },
    {
      "inputs": [],
      "name": "votingOpen",
      "outputs": [
        {
          "internalType": "bool",
          "name": "",
          "type": "bool"
        }
      ],
      "stateMutability": "view",
      "type": "function"
    }
  ],
  "bytecode": "0x6080604052348015600f57600080fd5b50336000806101000a81548173ffffffffffffffffffffffffffffffffffffffff021916908373ffffffffffffffffffffffffffffffffffffffff16021790555060008060146101000a81548160ff021916908315150217905550611d99806100796000396000f3fe608060405234801561001057600080fd5b50600436106100ea5760003560e01c80638da5cb5b1161008c578063ad71f8dc11610066578063ad71f8dc14610240578063c3403ddf1461025c578063cd8b2e2f14610266578063fe95b61014610284576100ea565b80638da5cb5b146101e55780638e7ea5b214610203578063a95824b414610222576100ea565b80631ec6b60a116100c85780631ec6b60a1461015757806330a56347146101615780633477ee2e1461017f57806335b8e820146101b2576100ea565b80630121b93f146100ef57806309e9d7e21461010b57806309eef43e14610127575b600080fd5b610109600480360381019061010491906110ae565b6102a2565b005b610125600480360381019061012091906110ae565b61045c565b005b610141600480360381019061013c9190611139565b6106ae565b60405161014e9190611181565b60405180910390f35b61015f6106ce565b005b6101696107c9565b60405161017691906111ab565b60405180910390f35b610199600480360381019061019491906110ae565b6107d6565b6040516101a99493929190611256565b60405180910390f35b6101cc60048036038101906101c791906110ae565b6109ae565b6040516101dc9493929190611256565b60405180910390f35b6101ed610be7565b6040516101fa91906112bf565b60405180910390f35b61020b610c0b565b6040516102199291906112da565b60405180910390f35b61022a610db6565b6040516102379190611181565b60405180910390f35b61025a6004803603810190610255919061143f565b610dc9565b005b610264610ef7565b005b61026e610ff7565b60405161027b91906111ab565b60405180910390f35b61028c611001565b60405161029991906111ab565b60405180910390f35b600060149054906101000a900460ff166102f1576040517f08c379a00000000000000000000000000000000000000000000000000000000081526004016102e890611532565b60405180910390fd5b600260003373ffffffffffffffffffffffffffffffffffffffff1673ffffffffffffffffffffffffffffffffffffffff16815260200190815260200160002060009054906101000a900460ff161561037e576040517f08c379a00000000000000000000000000000000000000000000000000000000081526004016103759061159e565b60405180910390fd5b60018054905081106103c5576040517f08c379a00000000000000000000000000000000000000000000000000000000081526004016103bc9061160a565b60405180910390fd5b60018082815481106103da576103d961162a565b5b906000526020600020906004020160010160008282546103fa9190611688565b925050819055506001600260003373ffffffffffffffffffffffffffffffffffffffff1673ffffffffffffffffffffffffffffffffffffffff16815260200190815260200160002060006101000a81548160ff02191690831515021790555050565b60008054906101000a900473ffffffffffffffffffffffffffffffffffffffff1673ffffffffffffffffffffffffffffffffffffffff163373ffffffffffffffffffffffffffffffffffffffff16146104ea576040517f08c379a00000000000000000000000000000000000000000000000000000000081526004016104e19061172e565b60405180910390fd5b600060149054906101000a900460ff161561053a576040517f08c379a0000000000000000000000000000000000000000000000000000000008152600401610531906117c0565b60405180910390fd5b6001805490508110610581576040517f08c379a00000000000000000000000000000000000000000000000000000000081526004016105789061160a565b60405180910390fd5b60008190505b6001808054905061059891906117e0565b81101561064757600180826105ad9190611688565b815481106105be576105bd61162a565b5b9060005260206000209060040201600182815481106105e0576105df61162a565b5b9060005260206000209060040201600082018160000190816106029190611a36565b5060018201548160010155600282018160020190816106219190611a36565b50600382018160030190816106369190611a36565b509050508080600101915050610587565b50600180548061065a57610659611b1e565b5b60019003818190600052602060002090600402016000808201600061067f9190611007565b60018201600090556002820160006106979190611007565b6003820160006106a79190611007565b5050905550565b60026020528060005260406000206000915054906101000a900460ff1681565b60008054906101000a900473ffffffffffffffffffffffffffffffffffffffff1673ffffffffffffffffffffffffffffffffffffffff163373ffffffffffffffffffffffffffffffffffffffff161461075c576040517f08c379a00000000000000000000000000000000000000000000000000000000081526004016107539061172e565b60405180910390fd5b600060149054906101000a900460ff16156107ac576040517f08c379a00000000000000000000000000000000000000000000000000000000081526004016107a390611b99565b60405180910390fd5b6001600060146101000a81548160ff021916908315150217905550565b6000600180549050905090565b600181815481106107e657600080fd5b906000526020600020906004020160009150905080600001805461080990611843565b80601f016020809104026020016040519081016040528092919081815260200182805461083590611843565b80156108825780601f1061085757610100808354040283529160200191610882565b820191906000526020600020905b81548152906001019060200180831161086557829003601f168201915b50505050509080600101549080600201805461089d90611843565b80601f01602080910402602001604051908101604052809291908181526020018280546108c990611843565b80156109165780601f106108eb57610100808354040283529160200191610916565b820191906000526020600020905b8154815290600101906020018083116108f957829003601f168201915b50505050509080600301805461092b90611843565b80601f016020809104026020016040519081016040528092919081815260200182805461095790611843565b80156109a45780601f10610979576101008083540402835291602001916109a4565b820191906000526020600020905b81548152906001019060200180831161098757829003601f168201915b5050505050905084565b6060600060608060018054905085106109fc576040517f08c379a00000000000000000000000000000000000000000000000000000000081526004016109f39061160a565b60405180910390fd5b600060018681548110610a1257610a1161162a565b5b906000526020600020906004020190508060000181600101548260020183600301838054610a3f90611843565b80601f0160208091040260200160405190810160405280929190818152602001828054610a6b90611843565b8015610ab85780601f10610a8d57610100808354040283529160200191610ab8565b820191906000526020600020905b815481529060010190602001808311610a9b57829003601f168201915b50505050509350818054610acb90611843565b80601f0160208091040260200160405190810160405280929190818152602001828054610af790611843565b8015610b445780601f10610b1957610100808354040283529160200191610b44565b820191906000526020600020905b815481529060010190602001808311610b2757829003601f168201915b50505050509150808054610b5790611843565b80601f0160208091040260200160405190810160405280929190818152602001828054610b8390611843565b8015610bd05780601f10610ba557610100808354040283529160200191610bd0565b820191906000526020600020905b815481529060010190602001808311610bb357829003601f168201915b505050505090509450945094509450509193509193565b60008054906101000a900473ffffffffffffffffffffffffffffffffffffffff1681565b606060008060149054906101000a900460ff1615610c5e576040517f08c379a0000000000000000000000000000000000000000000000000000000008152600401610c5590611c05565b60405180910390fd5b60008060005b600180549050811015610cd7578260018281548110610c8657610c8561162a565b5b9060005260206000209060040201600101541115610cca5760018181548110610cb257610cb161162a565b5b90600052602060002090600402016001015492508091505b8080600101915050610c64565b5060018181548110610cec57610ceb61162a565b5b90600052602060002090600402016000018054610d0890611843565b80601f0160208091040260200160405190810160405280929190818152602001828054610d3490611843565b8015610d815780601f10610d5657610100808354040283529160200191610d81565b820191906000526020600020905b815481529060010190602001808311610d6457829003601f168201915b5050505050935060018181548110610d9c57610d9b61162a565b5b906000526020600020906004020160010154925050509091565b600060149054906101000a900460ff1681565b60008054906101000a900473ffffffffffffffffffffffffffffffffffffffff1673ffffffffffffffffffffffffffffffffffffffff163373ffffffffffffffffffffffffffffffffffffffff1614610e57576040517f08c379a0000000000000000000000000000000000000000000000000000000008152600401610e4e9061172e565b60405180910390fd5b60016040518060800160405280858152602001600081526020018481526020018381525090806001815401808255809150506001900390600052602060002090600402016000909190919091506000820151816000019081610eb99190611c25565b50602082015181600101556040820151816002019081610ed99190611c25565b506060820151816003019081610eef9190611c25565b505050505050565b60008054906101000a900473ffffffffffffffffffffffffffffffffffffffff1673ffffffffffffffffffffffffffffffffffffffff163373ffffffffffffffffffffffffffffffffffffffff1614610f85576040517f08c379a0000000000000000000000000000000000000000000000000000000008152600401610f7c9061172e565b60405180910390fd5b600060149054906101000a900460ff16610fd4576040517f08c379a0000000000000000000000000000000000000000000000000000000008152600401610fcb90611d43565b60405180910390fd5b60008060146101000a81548160ff02191690831515021790555042600381905550565b6000600354905090565b60035481565b50805461101390611843565b6000825580601f106110255750611044565b601f0160209004906000526020600020908101906110439190611047565b5b50565b5b80821115611060576000816000905550600101611048565b5090565b6000604051905090565b600080fd5b600080fd5b6000819050919050565b61108b81611078565b811461109657600080fd5b50565b6000813590506110a881611082565b92915050565b6000602082840312156110c4576110c361106e565b5b60006110d284828501611099565b91505092915050565b600073ffffffffffffffffffffffffffffffffffffffff82169050919050565b6000611106826110db565b9050919050565b611116816110fb565b811461112157600080fd5b50565b6000813590506111338161110d565b92915050565b60006020828403121561114f5761114e61106e565b5b600061115d84828501611124565b91505092915050565b60008115159050919050565b61117b81611166565b82525050565b60006020820190506111966000830184611172565b92915050565b6111a581611078565b82525050565b60006020820190506111c0600083018461119c565b92915050565b600081519050919050565b600082825260208201905092915050565b60005b838110156112005780820151818401526020810190506111e5565b60008484015250505050565b6000601f19601f8301169050919050565b6000611228826111c6565b61123281856111d1565b93506112428185602086016111e2565b61124b8161120c565b840191505092915050565b60006080820190508181036000830152611270818761121d565b905061127f602083018661119c565b8181036040830152611291818561121d565b905081810360608301526112a5818461121d565b905095945050505050565b6112b9816110fb565b82525050565b60006020820190506112d460008301846112b0565b92915050565b600060408201905081810360008301526112f4818561121d565b9050611303602083018461119c565b9392505050565b600080fd5b600080fd5b7f4e487b7100000000000000000000000000000000000000000000000000000000600052604160045260246000fd5b61134c8261120c565b810181811067ffffffffffffffff8211171561136b5761136a611314565b5b80604052505050565b600061137e611064565b905061138a8282611343565b919050565b600067ffffffffffffffff8211156113aa576113a9611314565b5b6113b38261120c565b9050602081019050919050565b82818337600083830152505050565b60006113e26113dd8461138f565b611374565b9050828152602081018484840111156113fe576113fd61130f565b5b6114098482856113c0565b509392505050565b600082601f8301126114265761142561130a565b5b81356114368482602086016113cf565b91505092915050565b6000806000606084860312156114585761145761106e565b5b600084013567ffffffffffffffff81111561147657611475611073565b5b61148286828701611411565b935050602084013567ffffffffffffffff8111156114a3576114a2611073565b5b6114af86828701611411565b925050604084013567ffffffffffffffff8111156114d0576114cf611073565b5b6114dc86828701611411565b9150509250925092565b7f566f74696e67206973206e6f74206f70656e0000000000000000000000000000600082015250565b600061151c6012836111d1565b9150611527826114e6565b602082019050919050565b6000602082019050818103600083015261154b8161150f565b9050919050565b7f596f75206861766520616c726561647920766f74656400000000000000000000600082015250565b60006115886016836111d1565b915061159382611552565b602082019050919050565b600060208201905081810360008301526115b78161157b565b9050919050565b7f496e76616c69642063616e64696461746520696e646578000000000000000000600082015250565b60006115f46017836111d1565b91506115ff826115be565b602082019050919050565b60006020820190508181036000830152611623816115e7565b9050919050565b7f4e487b7100000000000000000000000000000000000000000000000000000000600052603260045260246000fd5b7f4e487b7100000000000000000000000000000000000000000000000000000000600052601160045260246000fd5b600061169382611078565b915061169e83611078565b92508282019050808211156116b6576116b5611659565b5b92915050565b7f4f6e6c7920746865206f776e65722063616e2063616c6c20746869732066756e60008201527f6374696f6e000000000000000000000000000000000000000000000000000000602082015250565b60006117186025836111d1565b9150611723826116bc565b604082019050919050565b600060208201905081810360008301526117478161170b565b9050919050565b7f43616e6e6f742072656d6f76652063616e646964617465207768696c6520766f60008201527f74696e67206973206f70656e0000000000000000000000000000000000000000602082015250565b60006117aa602c836111d1565b91506117b58261174e565b604082019050919050565b600060208201905081810360008301526117d98161179d565b9050919050565b60006117eb82611078565b91506117f683611078565b925082820390508181111561180e5761180d611659565b5b92915050565b7f4e487b7100000000000000000000000000000000000000000000000000000000600052602260045260246000fd5b6000600282049050600182168061185b57607f821691505b60208210810361186e5761186d611814565b5b50919050565b60008154905061188381611843565b9050919050565b60008190508160005260206000209050919050565b60006020601f8301049050919050565b600082821b905092915050565b6000600883026118ec7fffffffffffffffffffffffffffffffffffffffffffffffffffffffffffffffff826118af565b6118f686836118af565b95508019841693508086168417925050509392505050565b6000819050919050565b600061193361192e61192984611078565b61190e565b611078565b9050919050565b6000819050919050565b61194d83611918565b6119616119598261193a565b8484546118bc565b825550505050565b600090565b611976611969565b611981818484611944565b505050565b5b818110156119a55761199a60008261196e565b600181019050611987565b5050565b601f8211156119ea576119bb8161188a565b6119c48461189f565b810160208510156119d3578190505b6119e76119df8561189f565b830182611986565b50505b505050565b600082821c905092915050565b6000611a0d600019846008026119ef565b1980831691505092915050565b6000611a2683836119fc565b9150826002028217905092915050565b818103611a44575050611b1c565b611a4d82611874565b67ffffffffffffffff811115611a6657611a65611314565b5b611a708254611843565b611a7b8282856119a9565b6000601f831160018114611aaa5760008415611a98578287015490505b611aa28582611a1a565b865550611b15565b601f198416611ab88761188a565b9650611ac38661188a565b60005b82811015611aeb57848901548255600182019150600185019450602081019050611ac6565b86831015611b085784890154611b04601f8916826119fc565b8355505b6001600288020188555050505b5050505050505b565b7f4e487b7100000000000000000000000000000000000000000000000000000000600052603160045260246000fd5b7f566f74696e6720697320616c7265616479206f70656e00000000000000000000600082015250565b6000611b836016836111d1565b9150611b8e82611b4d565b602082019050919050565b60006020820190508181036000830152611bb281611b76565b9050919050565b7f566f74696e67206973207374696c6c206f70656e000000000000000000000000600082015250565b6000611bef6014836111d1565b9150611bfa82611bb9565b602082019050919050565b60006020820190508181036000830152611c1e81611be2565b9050919050565b611c2e826111c6565b67ffffffffffffffff811115611c4757611c46611314565b5b611c518254611843565b611c5c8282856119a9565b600060209050601f831160018114611c8f5760008415611c7d578287015190505b611c878582611a1a565b865550611cef565b601f198416611c9d8661188a565b60005b82811015611cc557848901518255600182019150602085019450602081019050611ca0565b86831015611ce25784890151611cde601f8916826119fc565b8355505b6001600288020188555050505b505050505050565b7f566f74696e6720697320616c726561647920636c6f7365640000000000000000600082015250565b6000611d2d6018836111d1565b9150611d3882611cf7565b602082019050919050565b60006020820190508181036000830152611d5c81611d20565b905091905056fea2646970667358221220ad85ee62dbc9fd3aab817d53b166879e2c27e9d857f59c33bf5c5cb020ec56e264736f6c634300081c0033",
  "linkReferences": {},
  "deployedLinkReferences": {}
}